:020000040800F2
:100000000000011065BA06086D280008D521020815
:1000100005BB060805BB060805BB06080000000076
:10002000000000000000000000000000594400082B
:100030005D4400080000000061440008CD04010890
:1000400005BB060805BB060805BB060805BB060878
:1000500005BB060805BB060869BD00086DBD0008A4
:1000600005BB060871BD000875BD0008A530000875
:10007000B9300008CD300008E1300008F530000844
:10008000093100081D31000805BB060805BB06083C
:1000900005BB060805BB060805BB060879BD0008B8
:1000A000252F00084D2F0008752F0008112F00087C
:1000B0009D2F0008B12F0008C52F000805BB0608BA
:1000C00005BB060805BB060805BB060805BB0608F8
:1000D00005BB0608D529000805BB0608E12900086C
:1000E0007DBD000805BB0608654400080130000816
:1000F0002930000851300008ED2F00083131000888
:1001000005BB060805BB0608D92F000805BB060875
:10011000ED29000805BB060805BB060805BB060857
:1001200045310008593100086D310008813100085F
:100130009531000805BB060805BB060805BB060887
:1001400005BB060805BB060805BB0608B944000840
:10015000A9310008BD310008D1310008F929000893
:1001600005BB060805BB060805BB060805BB060857
:1001700005BB060805BB060805BB060805BB060847
:0801800005BB060805BB0608DB
:10019000D0E907239A422FBFD01AC0688018C01A2E
:1001A000704700BFD0E9092300699A4238BF12188E
:1001B000D31A0138C01A7047D0E90902101AB0FAF0
:1001C00080F04009704700BF0246036A4069D16869
:1001D000C05C01338B4228BF00231362704700BF0D
:1001E000436A8269D154436A0169426B01338B428D
:1001F00028BF00234362D36843F08003D360704775
:10020000436B188810F0100002D01A889B880120D8
:10021000704700BF436B99891A88890610B5044658
:100220000AD592B2900607D5E26A002A29D09888AA
:10023000216B80B29047636B99891A88090692B244
:100240000FD510060DD5D4E909128A4214D0A16940
:100250002069895C99800132B2FBF0F100FB112228
:10026000A262998A1A88C90592B204D5D20744BFFE
:100270004FF6F7721A8010BDDA6822F08002DA6059
:10028000EFE79B88E2696169DBB28B54E269E16860
:10029000636B0132B2FBF1F001FB1022E261CBE7AC
:1002A000036942681F2B10B40AD95468A3F1200CCB
:1002B000202101FA0CF1214207D15DF8044B70476F
:1002C0001468202199402142F7D081690024C86830
:1002D0000C7480684C68016821F00101016020689D
:1002E00094F805C00C4C818934F81C4089B221EA8D
:1002F00004011F2B818107D9A3F1200120238B400A
:100300005DF8044BD3607047202101FA03F35DF8D8
:10031000044B9360704700BFD816070882B00922CB
:10032000274B8DF80720DA68D00319D4DA68D10694
:1003300040D4DA68D20541D4DA6812F0E00F3BD13C
:10034000DB6813F0020F14BF082309238DF8073070
:100350009DF80730012B0AD09DF8070002B07047C6
:1003600001238DF807309DF80730012BF4D1144A92
:1003700012E0D368DB0519D4D36813F0E00F17D16E
:10038000D36813F0020F14BF082309238DF8073038
:100390009DF80730012BDFD1D168C8034FF001036E
:1003A000F4D4D368D906E4D50623EFE70223EDE7BA
:1003B0000723EBE70623D4E70723D2E70223D0E79E
:1003C000003C0240704700BF704700BF01207047EB
:1003D000044BD3E90003984288BF03F50063181A61
:1003E000704700BFE81A0020054AD2E900318B426D
:1003F000FDD0D1180133C3F30A03087A13607047A4
:10040000E81A0020064BD3F8080800B97047D3F863
:100410000808A0F10500B0FA80F04009704700BF5D
:10042000E81A0020012380F849307047064BD3F8C2
:100430000C08D3F81028431E90428CBF00200120E6
:100440009B1A03EBC0207047E81A002010B5D0F8C3
:10045000E83504461B699847032384F812310020CD
:1004600010BD00BF08B5042290F81211D0F8E8358D
:1004700080F8131180F81221DB689847002008BD2E
:1004800008B5D0F8E435DB6903B19847002008BD12
:1004900008B5D0F8E4351B6A9847002008BD00BFB6
:1004A00008B5D0F8E4355B6A9847002008BD00BF66
:1004B000037830B403B30446C0F1010C04EB0C0321
:1004C00014F8015FDBB2002DF8D101335B00DCB220
:1004D000138003230C704B7004785CB10223002559
:1004E0005A1CD2B2CC548D5410F8014F0233DBB2F7
:1004F000002CF5D130BC704702242346E8E700BF4A
:1005000010B5074C2068FF2808D00649D1F81428F8
:1005100001F6180100F086F8FF232360002010BDCB
:1005200000000020E81A0020432301480B80704798
:1005300004000020122301480B807047480000206F
:10054000042301480B8070475C0000200A4608B570
:10055000054920B90548FFF7ABFF034808BD04482B
:10056000FFF7A6FF004808BD08230020C0A4070825
:10057000E4A4070808B5044B04480A461946FFF7E7
:1005800097FF084608BD00BF0823002008A50708FC
:1005900008B5044B04480A461946FFF789FF084688
:1005A00008BD00BF0823002010A5070808B5044BAC
:1005B00004480A461946FFF77BFF084608BD00BFFE
:1005C000082300201CA5070808B5044B04480A4668
:1005D0001946FFF76DFF084608BD00BF082300203D
:1005E00028A50708704700BF704700BF704700BFCD
:1005F000704700BF704700BF704700BF044B00202A
:100600000522C3F80828C3F82009C3F82409704755
:10061000E81A0020024B0020C3F80808704700BF0A
:10062000E81A0020212838B50C4605D022282DD004
:10063000202813D0002038BD0029FBD0072AF9D18B
:10064000194BD3F8280993F82C1993F82D2993F80E
:100650002E39206021716271A371EBE70029E9D086
:10066000072AE7D1104DD5F8243913B109680020C5
:100670009847206821796279A379C5F8280985F817
:100680002C1985F82D2985F82E39D3E70029D1D0EA
:10069000022ACFD1044BD3F82039002BCAD00988C5
:1006A00000209847C6E700BFE81A002010B4144C99
:1006B000D4E900239A4286BF03F5006CACEB02023A
:1006C0009A1A0A44B2F5006F13D8B1B101444A1E18
:1006D000013810F801CFE118824203F1010381F8DB
:1006E00008C0C3F30A03F4D1636000205DF8044B33
:1006F000704702205DF8044B70470846F6E700BFDC
:10070000E81A00201D49D1F884391A79022A00D04C
:10071000704710B41A4C93F9102002EB820204EBDC
:100720008202126E1089800708D51289100605D43E
:100730009A6892070BD45DF8044B704700BFD1F85C
:1007400084391A79022AE6D05DF8044B7047D1F853
:1007500088190C480C4A4FF4FA7404FB01F1A2FB0F
:100760000121446889094268121B9142FBD25B69EE
:10077000002BE0D01A689B881383DCE7E81A00207E
:1007800000000020001000E0D34D6210034B93F8EE
:100790005409003818BF0120704700BFE81A002034
:1007A000034B93F85409032894BF0020012070479D
:1007B000E81A0020004870474024002030B4194B4C
:1007C00000209C7B14B11D688D4206D001300828A2
:1007D00003F11003F5D130BC70479AB1124B03EB13
:1007E00040218A4219D0114B93F8B4218AB1104BA1
:1007F00001225A7000F5817003EB00100123837110
:1008000030BC70470A4B00F5817003EB0010827119
:10081000E1E7012283F8B421E9E7022CE3D1183B98
:10082000E8E700BFF0570020F0470020D85700202D
:10083000D847002030B41D4C002384F8A03004F1C8
:10084000180004E00133082B00F110001ED00568E9
:100850008D42F7D190F80EC0BCF1030FF2D1BAB1BE
:10086000134901EB4320824209D094F8B42112B914
:10087000012284F8B4210F4901224A7000E018399E
:1008800003F5817301EB031301229A7130BC7047A9
:100890000849D4F89C2003F5817301EB031301325E
:1008A00004219971C4F89C20F0E700BFD8570020BC
:1008B000F0470020D8470020A8B183681BB10E4B39
:1008C00007229A7070470C4A1178D36003294FF0C1
:1008D00004000CBF80214FF48071C2E90111136143
:1008E000137590707047044A02F5805101235370CC
:1008F00081F8B431704700BFD847002010B581217E
:10090000044669F007FA2046012169F003FA2046FF
:10091000822169F0FFF9FFF77DFE002010BD00BFC6
:10092000C169026910B4002340F20114A0F84441E7
:100930000B60D169846D21F002014FF0010CD1618F
:10094000A0F89CC32360D169044821F4003180F8E9
:100950008C395DF8044BD16118467047E81A0020C5
:10096000202301480B807047B0000020122301486B
:100970000B807047D0000020042301480B80704793
:10098000E40000200A4608B5054920B90548FFF7EC
:100990008FFD034808BD0448FFF78AFD004808BDE5
:1009A0007824002038A5070850A5070808B5044B8F
:1009B00004480A461946FFF77BFD084608BD00BFFC
:1009C0007824002068A507082048D0F8E837D0F838
:1009D000EC2730B59B184FF01A040C8001D11C484D
:1009E00030BD1B4AD0F8EA174FF0000E104675468E
:1009F000B3F1204F4FEA137C0CF130040EF1020EDC
:100A00002ABF0CF1370C847080F802C0BEF1100FC1
:100A1000C5704FEA031300F10200E9D1002004463B
:100A2000B1F1204F4FEA117303F1300C00F10200D5
:100A30002ABF373382F812C093740828D4744FEA5F
:100A4000011102F10202EBD1014830BD00F0FF1F9D
:100A5000E800002008B5044B04480A461946FFF791
:100A600027FD084608BD00BF782400207CA50708A4
:100A700008B5044B04480A461946FFF719FD084615
:100A800008BD00BF7824002088A5070810B50F4CCA
:100A90000F4BD4F88C1BB4F8900B088303F58272CB
:100AA000C4F8902DD3F80431984702E01B699847A9
:100AB00020B9D4F8903D002BF8D1FEE7D4F88C3B58
:100AC000B4F8902B5A83002010BD00BFE81A002014
:100AD0000000002038B5084BD3F8903D53B1DB69D6
:100AE00014460D4698474FF4007302682A600020B0
:100AF000236038BD1B68FFDEE81A002008B5074BED
:100B0000D3F8903D33B11B69984780F00100404213
:100B100040B208BD4FF0FF3008BD00BFE81A00200A
:100B2000002070471BB32DE9F041124D16460F46C9
:100B300003EB020806E000234C681A4639463046AB
:100B4000A04738B9D5F8901D0029F4D1FEE71B69FC
:100B5000984720B9D5F8903D002BF8D1FEE7013633
:100B6000B04507F50077EDD10020BDE8F081002009
:100B7000704700BFE81A002043B32DE9F041144C40
:100B800016460F4603EB020801E00B699847D4F8BC
:100B9000901D51B10023CD681A4639463046A8470A
:100BA000D4F8901D08B10029EFD131B10B699847F5
:100BB00020B9D4F8901D0029F8D1FEE70136B045E0
:100BC00007F50077E3D10020BDE8F08100207047F1
:100BD000E81A0020002070472DE9F041204E96F8D9
:100BE000943D002BFBD1B9B3014400F1FF384F1EF7
:100BF000D6F81018D6F80C3818F8010F4A1CC2F3B2
:100C00000A029A4234BF002401249B1A314403EBA8
:100C1000C423012B81F8980DC6F810281AD10FF0C3
:100C2000A1FC04460D460FF09DFC031B61EB050182
:100C3000B3F57A7F71F10003F5D3D6F80C38D6F806
:100C4000102893428CBF002101219B1A03EBC12382
:100C5000012BE4D0B845CBD10020BDE8F08100BF26
:100C6000E81A00200A4B10B5D3F8084804B910BDA3
:100C7000D3F80838052BFAD1064C002A0846D4F8D8
:100C8000A0341146F3DDFFF7A7FFD4F8A03410BD60
:100C9000E81A0020E02B002090F84820531C024462
:100CA000DBB280F8483082F8341090F849200AB15D
:100CB000132B03D9002280F8482003B970470A4A51
:100CC000D2F808180029F9D0D2F80828052AF5D159
:100CD00010B5064C19463430D4F8A034FFF77CFF29
:100CE000D4F8A03410BD00BFE81A0020E02B00208B
:100CF00090F848100023A0F8483001B97047094B1C
:100D0000D3F80828002AF9D0D3F80838052BF5D1F4
:100D100010B5054C3430D4F8A034FFF75DFFD4F89B
:100D2000A03410BDE81A0020E02B00202DE9F04788
:100D30005D4E1F4606EB80039C68002C00F0AD80E2
:100D400004F13E03A36104F59F73E3614FF48073E4
:100D5000C4E904332836236866600546E16094F8E8
:100D60003D00A36390460BF00BF8814694F84402D3
:100D700094F83CA0261D00284FD194F8450268BB8A
:100D8000D4F8403283BB390734D418F0020F60D155
:100D900018F0010F44D194F9472294F84712D4F87F
:100DA0004832002A10DB41481B018418DBB284F86A
:100DB00000335209012301F01F0103FA01F140F849
:100DC00022103046BDE8F087394A01F00F010A448D
:100DD0001B01DBB213763046BDE8F08766F0F4F90C
:100DE000D4F84032002BCED0324A116B0B43390776
:100DF0001363CAD50135EDB2B9F1000FCBD04FF472
:100E0000E163FA0689F80850A9F8063036D4BB0623
:100E100094F8462245D4322133E066F0D5F9ACE7A8
:100E200050460AF0ADFF0135EDB20028B3D04FF4C3
:100E3000C1620572C28094F8462202210BF074F957
:100E400094F9472294F84712D4F84832002AAADAD3
:100E5000BAE76B1CDBB2B9F1000F99D089F8083002
:100E60004FF4A163A9F8063094F8462248460221BF
:100E70000BF05AF918F0010F8DD0D1E794F8462203
:100E8000022148460BF050F994F9472294F8471292
:100E9000D4F84832002A86DA96E726463046BDE87E
:100EA000F0871221EDE700BFD816070800E100E047
:100EB000FCEC00E0003802402DE9F047038A848909
:100EC000A4B21C4082B045D0814688464FF0004510
:100ED00001F14C0701F13406B4FA84F325FA03F268
:100EE000D24391B2A9F8101014401B3BB8F1000F87
:100EF0005DD0042B2CD8DFE803F050463B300300D4
:100F0000D8F80C30D9F82CA033B19B6823B11FFA64
:100F10008AF108F104009847D8F8243033B19B686F
:100F200023B11FFA8AF108F11C009847D8F83C3029
:100F30002BB19B681BB11FFA8AF130469847D8F84D
:100F400054302BB19B681BB11FFA8AF13846984781
:100F5000002CC1D102B0BDE8F087D8F80C30D9F828
:100F600034105B6808F104009847002CB4D1F1E715
:100F7000D8F82430D9F838105B6808F11C0098477D
:100F8000002CA9D1E6E7D8F83C30D9F83C105B68D2
:100F900030469847002C9FD1DCE7D8F85430D9F878
:100FA00040105B6838469847002C95D1D2E7042B57
:100FB00007D8DFE803F00319140F0A00D9F840300E
:100FC0000193019B002C87D1C4E7D9F82C30019301
:100FD000019BF7E7D9F834300193019BF2E7D9F888
:100FE00038300193019BEDE7D9F83C300193019B28
:100FF000E8E700BF38B5284C94F8942D012A034641
:1010000003D0022A09D0002038BD2449D1F8A424F5
:10101000A2B984F8942D002038BD002540F20112B9
:10102000C0E95455C0E95655A0F8442100F5A27115
:1010300068F080FF84F8945D002038BD402AD4F821
:101040000C0819D9403AC1F8A42440228118C4F8E8
:101050000C1880B2124940F2011401440020C3E987
:101060005411C3E95620A3F84441184603F5A27170
:1010700068F060FF002038BD4FF00005C1F8A454AF
:1010800002EB0001C4F80C1808BF022180B208BFAF
:1010900084F8941DDEE700BFE81A0020E02B002052
:1010A0008028002001EB810138B500EBC1010E4D15
:1010B000B1F88C1304462846FFF7F8FAE378C4F831
:1010C000A85340210022C4E9EC1201229342204699
:1010D000A4F89C2304F5677108BFC4F8AC5368F00A
:1010E00029FF002038BD00BF8830002038B52A4BCA
:1010F000D3F8E8240F2A04D0511CC3F8E8140020C8
:1011000038BD264A92F8945D0021C3F8E814002DFA
:10111000F5D1D2F80C18D2F81048B1F5006F30D0E4
:10112000A14235D002F6985594BF641AC1F5006407
:1011300015FA81F5402C19D82144C2F80C184FF04B
:101140000001C3F8A4140CBF0223012382F8943DCC
:1011500040F201120023C0E95455C0E95643A0F8FB
:10116000442100F5A27168F0E5FEC8E7403CC3F8F1
:10117000A44440310123C2F80C1882F8943D402465
:10118000E6E7C2F80C581CB1294602F69855D1E79B
:10119000002382F8943DB2E7E02B0020E81A0020FB
:1011A00038B5224DD5F8F43495F80CC5044623B172
:1011B00095F8F8345CEA030331D00123E06984F840
:1011C000463140F20112A4F8442102681849002A6D
:1011D000A8BFC2F380739B0301EA124143F02003CE
:1011E0000B4363F31F42BCF1020F026000D038BD15
:1011F000E278104BC4F8A8331F200021C4E9EC01A9
:10120000012A4FF00101A4F89C1308BFC4F8AC33C5
:1012100004F567712046BDE8384068F08BBE0121B7
:1012200065F0B6FD95F80CC5C7E700BFE02B0020C0
:10123000DFBFFFFFCC30002070B590F8CF2590F8CD
:10124000D13590F8CE5590F8D0C590F8CC1590F8DF
:10125000CD6505EB02250CEB032C90F8D32590F817
:10126000D23503EB0223012284B080F8112101F072
:101270001F029BB2ADB21FFA8CFC012A04468DF806
:101280000810ADF80A50ADF80CC0ADF80E30C0F83B
:1012900040318DF809600AD0022A57D0002A3CD08C
:1012A00001F0800165F074FD002004B070BD90F87D
:1012B0001231032B2BD15FFA8CFCBCF1010F26D825
:1012C000D0F8E43502A99B689847BDF80E30002B92
:1012D000EAD1C4E94A33C4E94C3304214FF48072A3
:1012E00084F81111A4F81C2104F58E71204668F0D1
:1012F000B3FD636DC44A1A61E278012AD4D104F2C5
:10130000CC545C614FF0802219681A60CCE720460B
:1013100065F006FD002004B070BD092EF7D801A2CB
:1013200052F826F0CF130008DF1400080F1300084E
:10133000191500080F13000847150008F3130008DB
:101340000F1300085D1400088D14000801F06001FF
:1013500020295FFA8CF334D0012E00F06181032E36
:1013600000F09581002E9FD190F81221022A00F002
:101370001B81032ACBD11CF0800F40F0A48103EB2A
:10138000830300EBC30393F87633002B00F0A681B0
:101390009E4B0122C3F81C259D4A0223C4E94E330B
:1013A0004FF48070002184F81131A4F81C01C4E9C5
:1013B0004C31C4E94A2204F58E71204668F04CFD98
:1013C00072E7D0F8E43502A99B6898476CE790F87B
:1013D0001231023B012B9AD88C4BD0F818210021F6
:1013E000C3F8141512B10222C3F81425894A022346
:1013F000D4E72E0A022EADF8063000F0CD81032E80
:1014000000F09181012E82D1D0F8EC3580781B68F4
:101410000DF106019847BDF80630002B3FF444AFAC
:10142000BDF80E20002A3FF43FAF934228BF134679
:101430004FF480720221A4F81C210022C4E94A0062
:1014400084F81111C4E94E33C4E94C3204F58E71AD
:101450002046ADF8063068F0FFFC25E7012B7FF44D
:1014600056AF90F81221022A00F04981032A7FF436
:101470004EAF4FF4807100F588720220A4F81C1161
:10148000C4E94E3384F81101002190E7EDB25F4EBC
:10149000012D86F80D553FF63AAF90F81231022B28
:1014A00000F02181032B7FF432AF002D00F07F810B
:1014B00090F81011012910D0D0F8E4355B689847F6
:1014C00096F80D15D4F8E43584F810111B68204601
:1014D0009847D4F8E8359B6898470023F9E690F8D8
:1014E0001231023B012B3FF612AF012D7FF4DCAE2F
:1014F000D0F8E43500259B68C0F8185102A9984738
:1015000004224FF48073C4E94A55C4E94C5584F869
:101510001121A4F81C31E7E6012D00F0CC80022D4A
:101520007FF4C2AE5FFA8CF3002B7FF4BDAE02698C
:101530004FEA1C23023B5268032B00F25681DFE87E
:1015400003F05B426B5F5CEA03037FF4E0AE90F86C
:101550001221032A3FF4DBAE016905F07F0680F813
:10156000146108681A4665F30A1202430A604FF4D0
:1015700080720421C4E94A33C4E94C3384F8111160
:10158000A4F81C2104F58E71204668F065FC636D9B
:101590001D4A1A61E278012A0DD0002E00F0128156
:1015A000022384F812317FE65A063FF47DAE1946D5
:1015B00065F0EEFB78E604F2CC525A614FF08022DF
:1015C00019681A60E9E7032363F3061201210F4D3E
:1015D00084F816110421002384F811114FF480714E
:1015E000A4F81C11C4E94A33C4E94C3304F58E71E4
:1015F0002046C5F818257AE6022363F30612E5E7CC
:10160000052363F30612E1E718000860E02B0020D1
:10161000FC300020F4300020042363F30612D5E7E9
:1016200090F81221022ABFD0032A7FF470AE002D59
:101630007FF43AAE13F07F023FF44FAF1CF0800FFF
:1016400040F0C48003EB830100EBC10181F87423F7
:1016500081F8765381F87553282101FB030300EBD1
:10166000820293F87713506D03688A1E012A6FF384
:101670005553D4F8E4258CBFC3F30071012161F305
:101680001C739268036002A92046904725E790F8F2
:101690001221022A88D0032A7FF439AE25B95906CF
:1016A00002D0194665F074FBD4F8E43502A99B68B2
:1016B0002046984711E7D0F8E43502A99B68C0F8A6
:1016C0001851984709E703F07F0303EB830300EB0E
:1016D000C30393F81E31002B7FF45AAE454B002212
:1016E000C3F81C2558E6002D3FF40AAF0121032260
:1016F000D0F8E43580F8101180F81221E6E63E4972
:1017000084F811214FF480700022C4E94A11A4F832
:101710001C01C4E94E33C4E94C3204F58E712046F5
:1017200068F09AFBC0E5EDB2052D3FF6F0ADDFE8BD
:1017300005F02B231B130B03D0F8EC3580789B6945
:101740000DF10601984766E6D0F8EC3580785B69C4
:101750000DF1060198475EE6D0F8EC3580781B69FC
:101760000DF10601984756E6D0F8EC358078DB6835
:101770000DF1060198474EE6D0F8EC3580789B686D
:101780000DF10601984746E6D0F8EC3580785B68A5
:101790000DF1060198473EE6D0F8E43580789B6A63
:1017A0000DF1060198474670C4F8F00533E60222B1
:1017B000D0F8E43580F8122180F810515B68294692
:1017C00098479DE6012384F812316DE5282303FB39
:1017D000020181F81C2100EB820281F81E5181F880
:1017E0001D61906991F81F113EE7012363F3061212
:1017F000ECE600BFE02B0020F030002010B50446DE
:1018000029B990F81121032A0DD0002010BDD0F87D
:10181000E4359B69002BF8D090F81221032AF4D10B
:101820009847002010BDD0F890230B46D0F87C13C9
:101830008A4213D9C078521A0128C4F8902336D0AE
:101840008A4228BF0A4692B2C4E9E22304F55D71D8
:10185000A4F87433204668F0FFFAD6E7D0F8E435F0
:101860001B691BB190F81221032A1ED000234FF4EC
:1018700080720421C4E94A33C4E94C3384F811115D
:10188000A4F81C2104F58E71204668F0E5FA636D1A
:10189000104A1A61E278012AB7D104F2CC545C6193
:1018A0004FF0802219681A60AFE79847DEE78A4256
:1018B000D4F88003A4F8743328BF0A46084492B2CF
:1018C000C4E9E22304F55D71C4F88003C4F884031D
:1018D000C0E700BF1800086038B5044649B990F861
:1018E0001131022B11D094F81631012B40D0002079
:1018F00038BDD0F8E4355B69002BF8D090F81221A0
:10190000032AF4D19847002038BDD0F83831D0F8F8
:101910002421934236D9C178012908BFD0F8281173
:10192000A3EB020318BFD0F82821C0F8383108BF54
:1019300052189BB24FF480710025C0E94C35A0F8D5
:101940001C11C0E94A2200F58E7168F085FAE3782F
:10195000C4F88053012BC4E9E255A4F8745308BFBE
:10196000C4F8845304F55D71204668F075FABAE74F
:101970002A4B2269D3F818155160002384F81631D8
:10198000002038BDD0F83C31B3FBF2F502FB153531
:10199000ADB99A4213D8D0F8402193420FD24FF4F8
:1019A0008073A0F81C31C0E94A55C0E94C5500F5D8
:1019B0008E7168F051FAE378C4F84051C8E7D4F862
:1019C000E435DB681BB194F81221032A23D0E278B6
:1019D0000023012A4FF0050108BFC4F88433C4E98D
:1019E000E23384F81111C4F88033A4F8743304F599
:1019F0005D71204668F030FA636D094A1A61E27839
:101A0000012A7FF470AF04F2CC525A614FF0802269
:101A100019681A6067E720469847D8E7E02B00204E
:101A200018000860F8B50B7813F060060D46044600
:101A300020D0202E25D1CE884EB31B0649D5384F55
:101A4000687832463946FEF7EDFDEB880222002623
:101A500084F811214FF48072C4E94E33C4E94A7707
:101A6000C4E94C36A4F81C2104F58E71204668F0B8
:101A7000F3F90AE04B780A2B17D00B2B0ED0062B6C
:101A800003D1204665F04CF902263046F8BD02220B
:101A900048781144FEF7C6FD3046F8BD8B78002B20
:101AA0003AD1204BC3F82065EFE7022280F81121DC
:101AB0004FF48072A0F81C211B4A0123C0E94E3369
:101AC000C0E94A22C0E94C3600F58E7168F0C4F9CD
:101AD000DBE7164B164A4978116003F6180203211A
:101AE000C0E9E46680F81111C0F88863C0F880236B
:101AF000C078C3F8146801284FF00003C4F88C3391
:101B0000A4F8743304F55D7108BFC4F8842320463B
:101B100068F0A2F90026B8E765F002F9B5E700BF62
:101B200000230020E02B002000310020E81A0020D4
:101B300000000020002310B519460446402268F03A
:101B40001BF9802120460023402268F015F9D4F8C3
:101B5000E835A078012284F812215B6898470020BC
:101B600010BD00BF10B5022304464022812168F059
:101B700003F9204602234022012168F0FDF82046A7
:101B800003230822822168F0F7F80E4B0222A3F803
:101B90004C20FEF733FDE2780B4BC4F8A83340200D
:101BA0000021C4E9EC01012A4FF00101A4F89C13C3
:101BB000204604F5677108BFC4F8AC3368F0BAF981
:101BC000002010BD000000208830002070B5812169
:101BD00082B00446314E68F09DF80121204668F03D
:101BE00099F80025022340228121204686F88C594D
:101BF00068F0C2F8012102234022204668F0BCF8B8
:101C0000274B86F88C59D3F8242583F80C55126895
:101C1000284690470095009BE16843F0100300932D
:101C2000009B0B610A691F4B009203E00A69009256
:101C3000013B02D0009AD006F8D400230193019B07
:101C400043F020030193019A164B012060F38A129E
:101C50000192019A0A610A69019203E00A690192FC
:101C6000013B02D0019A9206F8D4E2780E4BC4F8F8
:101C7000A83300211F20C4E9EC01012A4FF0010123
:101C8000A4F89C1304F5677105D0204668F052F95A
:101C9000002002B070BDC4F8AC33F6E7E81A0020AB
:101CA000E02B0020400D0300CC30002010B5144C78
:101CB000D4F8803943B119689A880B691A4203D065
:101CC000002384F8543910BD94F85439032B10D8EC
:101CD00094F848390133DBB2072B84F84839EFD840
:101CE000084A0123D2F8A024C4F8442984F85439BE
:101CF00010BDD4F88409002107F000FEE8E700BF1A
:101D0000E81A0020E02B00202DE9F047294FDFF8EA
:101D1000AC90294CDFF8A8A082B000F101080026A1
:101D200006E09DF80700FF282FD1013646452CD04C
:101D3000D7F8845995F91030AA6803EB830309EBAF
:101D400083039207186E23D5012300220DF10701AA
:101D500068F0B6FCAB689B07E3D4D7F888296168C4
:101D60004FF4FA7303FB02F2AAFB02329209636892
:101D70005B1A9A42FBD26B69002BD2D09DF8070008
:101D80001A689B881383FF28CFD002B0BDE8F08784
:101D90006B6913B11A689B885383D7F888296168E7
:101DA000D200AAFB0232920963685B1A9A42FBD204
:101DB000CAE700BFE81A0020001000E00000002081
:101DC000D34D621070B5044608200D46FFF79CFF06
:101DD000FF2814D0FE2801D0022070BD094E2B46EA
:101DE000D6F884092146002268F0BAFC0022D6F811
:101DF00084090223114668F0B3FC002070BD012065
:101E000070BD00BFE81A002070B52F4C2F4AD4F8DF
:101E1000845995F9103003EB830302EB8303AA681E
:101E200082B000204FF6FF519207C4F85009ADF878
:101E30000410186E34D5022301AA002168F040FC7A
:101E4000AB689B0715D50120FFF75EFFFF280AD07E
:101E50001F4BD3F8A034C4F844390922002084F879
:101E6000542902B070BD0423022084F8543902B012
:101E700070BDD4F888391749174E48684FF4FA7284
:101E800003FB02F2A6FB023292094B681B1A9A422C
:101E9000FBD26B69002BD6D01A689B881383D2E7DC
:101EA0006B6913B11A689B885383D4F88829094950
:101EB000094B4E68D200A3FB023292094B689B1B70
:101EC0009A42FBD2B7E700BFE81A002000000020CA
:101ED000E02B0020001000E0D34D621070B582B0FE
:101EE00004460B0E080C0A0A44F040058DF8013038
:101EF00095238DF800508DF802008DF803208DF8A1
:101F000004108DF8053068F073FC08B9002C44D13A
:101F1000234D244AD5F8844994F91030A16803EB85
:101F2000830302EB83038A07186E0CD506236A46E7
:101F3000002168F0C5FBA3689B0717D50820FFF7B1
:101F4000E3FE02B070BD636913B11A689B885383C6
:101F5000D5F888291449154B4E68D200A3FB0232EC
:101F600092094B689B1B9A42FBD2DFE7D5F8882980
:101F70000D490E4B4FF4FA7000FB02F2A3FB023244
:101F8000486892094B681B1A9A42FBD26369002B7E
:101F9000D4D01A689B881383D0E7FF2002B070BDAD
:101FA000E81A002000000020001000E0D34D62106D
:101FB0002DE9F0412E4C82B00546884617461E4654
:101FC00094F8540904280DD0082807D1D4F84C39C6
:101FD000AB4247D0FFF718FF0228F1D0012002B032
:101FE000BDE8F081D4F8840907F0D4FC94F84A39AC
:101FF00083BB69021820FFF771FF68BB94F854395E
:10200000082B4FF0FF038DF804300CBFFC23FE2398
:10201000D4F884098DF8053001AA0223002168F064
:102020009FFBD4F8840942468023002168F098FB86
:10203000012206230020C4F83089C4F83459C4F8BA
:102040003C79C4F8406984F8382984F8543902B0DE
:10205000BDE8F0812946CDE7FEF754FBFFF726FEE9
:102060000320BCE7FF238DF80430FC23D0E700BF3A
:10207000E81A002070B51F4C94F85439042B06461A
:102080000D4609D0082B25D1D4F84C3983422FD0E6
:10209000FFF7BAFE02281DD1D4F8840907F07AFCB4
:1020A00000213720FFF71AFF29461720FFF716FFF8
:1020B000C0B994F84A397BB971021920FFF70EFFB5
:1020C00080B9082384F85439C4F85059C4F84C69CD
:1020D000022070BD012070BD31461920FFF7FEFEC1
:1020E0000028EED0FEF70EFBFFF7E0FD032070BDE9
:1020F000022070BDE81A00202DE9F0411C4C054675
:1021000094F854090428884617461E4608D0082823
:1021100002D00020BDE8F081FFF776FE0228F8D15A
:10212000D4F8840907F036FC94F84A39BBB969023F
:102130001120FFF7D3FEC0B90E4BC4F83089D3F895
:10214000A034C4F83459052284F85429C4F83C79E1
:10215000C4F84069C4F844390120BDE8F08129463B
:102160001120FFF7BBFE0028E6D0FEF7CBFAD0E740
:10217000E81A0020E02B00202DE9F043844CD4F82D
:10218000840987B0002836D094F85409814D824ED6
:10219000824F431E082B1CD8DFE813F09400BF00C9
:1021A00042011B000900590041001B003000D4F817
:1021B00030094FF40071FFF705FE012800F0968109
:1021C000022800F09B81002800F0CC8194F854098B
:1021D000431EDBB2022B00F2D6806E4BD4F84429AA
:1021E000D3F8A0349B1AC82B00F29E81A0F10800FE
:1021F000B0FA80F0400907B0BDE8F08368F0F8FA63
:10220000002840F06382D4F84439D5F8A024FA338A
:102210009342DBD2FFF74AFD94F85409B9E768F01E
:10222000E7FA0028EFD0D4F850390022012B84F8C7
:10223000482940F25382D4F84C29013B013208204E
:10224000C4F85039C4F84C2984F85409CEE7D4F8BE
:10225000303994F83829D4F8840903EBC2120021EC
:10226000802368F07DFA94F838390133DBB2042B0F
:1022700084F83839AAD1D4F88409022332460021DF
:1022800068F06EFA0123D4F88409002202A968F0EC
:1022900067FA9DF8083003F01F03052B00F0FD815D
:1022A000FFF704FDD4F83C89B8F1000F00F0398144
:1022B0000120D4F84039D4F834190022C04794F8EA
:1022C000540966E7D4F8840907F064FB0021084646
:1022D000FFF704FE8046FEF715FAB8F1010F7FF410
:1022E00075AFD4F884094FF0000984F8499907F0D4
:1022F00051FB40F2AB110820FFF7F0FD052800F07C
:102300001881012800F06181FEF7FCF994F8490971
:10231000002899D0022384F85439D4F8840907F0AE
:1023200039FB94F84939022B0CBF4FF080484FF02D
:10233000000800213720FFF7D1FD41462920FFF793
:10234000CDFD8046FEF7DEF9B8F1000F7FF43EAF19
:1023500094F84939022B00F01B8184F84A89D4F89B
:1023600084391A79022A00F0E78000210920FFF75A
:10237000B5FDA8B1FEF7C6F994F85409431EDBB2C7
:10238000022B7FF62AAF04287FF430AF012032E71A
:10239000E81A0020E02B002030170708D34D621008
:1023A000D6481021FFF70EFD0028E3D194F87F39BD
:1023B000DB07DFD594F87019891100F01C81012921
:1023C000D8D194F87729DFF840E39200D2B21621F1
:1023D0004FF0020CCCF108038B4228BF0B46C3F12F
:1023E000080C42FA0CF29840C91A40EA02004FF079
:1023F000000C1EF8012FEDD1431C9B02C4F8583984
:10240000FEF780F9D4F8840907F0C4FA00210A2005
:10241000FFF764FD002840F0E780032384F8543977
:10242000102102A8FFF7CEFC00287FF4CFAE9DF864
:10243000083084F85E39BDF809309DF816209DF803
:1024400010105BBAA4F85C399DF80B3084F85F3942
:102450009DF80C3084F860399DF80D3084F86139AE
:102460009DF80E3084F862399DF80F3084F8633996
:102470009DF815301B01DBB243EA121302F00F0284
:1024800003F5FA6384F86C29DDF81120A4F86A39A1
:102490000B0912BA84F8683901F00F0384F869391E
:1024A000C4F86429FEF72EF994F84A397BB9D4F8B8
:1024B000840907F06FFA4FF400711020FFF70EFD4A
:1024C0008046FEF71FF9B8F1000F7FF4A3AED4F8F1
:1024D0008409022107F012FA002204230120C4F823
:1024E000502984F8543907B0BDE8F083D4F8443952
:1024F000D5F8A02464339342BFF468AEFEF702F926
:10250000FFF7D4FBD4F83C89B8F1000F09D00022C2
:102510001046D4F84039D4F83419C04794F8540917
:1025200037E694F8540934E6FFF7C0FB94F85409F1
:1025300029E784F84989E7E69A6892077FF515AF9D
:102540005B6913B11A689B885383D4F888396C4946
:10255000DA00A7FB0232486892094B681B1A9A42BC
:10256000FBD202E70190FEF7CDF8D4F83C59019870
:1025700084F84809042384F85439002D3FF406AF49
:10258000D4F84039D4F83029D4F83419A8471DE6D6
:10259000D4F8840907F0FEF941463A20FFF79EFC83
:1025A000424681460423D4F8840902A968F0D8F889
:1025B000FEF7A8F8B9F1000F7FF42CAE029B1BBA0E
:1025C000C3F3807384F84A39C9E60423D4F8840934
:1025D0004A4602A968F0C4F89DF80B30AB2B04BF43
:1025E000022384F849398FE6FEF78CF8FFF75EFB8B
:1025F00094F85409CDE594F8753994F87909DFF821
:102600000C8103F00F0380014FF0010C0CFA03FC66
:102610005FFA80F903234FF0060ECEF108029A42CA
:1026200028BF1A46C2F1080049FA00F091409B1AEF
:1026300018F8019F41EA00014FF0000EEDD194F827
:102640007689DFF8CC904FEA881802315FFA88F873
:102650000C20062200E00022C2F10802824228BFBC
:102660000246C2F1080E48FA0EFE9340801A19F88D
:10267000018F4EEA0303EED1013303FA01F14FEA71
:10268000EC72A1FB0C3C01FB02C15B0A43EAC153A3
:10269000C4F85839FEF736F8B4E61A4BD4F83C596A
:1026A000D3F8A034C4F84439072084F85409002D25
:1026B0003FF49CADD4F84039D4F83029D4F834191B
:1026C0000120A84794F85409431E82E50190FEF7C3
:1026D00019F80423019884F854398CE508D00423B0
:1026E00084F85439FEF70EF894F85409431E70E547
:1026F000FFF78AFB02287FF469AD3BE658240020EF
:10270000001000E0E02B00205F2400206124002066
:102710005E240020F8B500220F233221022009F0A8
:1027200041FD374FC7F88409002866D0002107F023
:10273000E5F84FF47A760DF015FF04460D460DF0DE
:1027400011FF031B61EB0502B3F57A7F72F1000301
:10275000F5D3013EEFD1D7F884090379022B32D0AB
:1027600000220A23114667F0FBFFD7F88409254CA5
:1027700003792549022B0BD0244B0122D3F8A01456
:10278000C7F84419002387F8542987F84839F8BD59
:1027900090F9103003EB830301EB83031B6E1A895E
:1027A000920702D51B891B06E6D5013CF0D109F042
:1027B0009FFC97F84839C7F88449013387F8544992
:1027C00087F84839F8BD83689907C9D5D7F888399B
:1027D0000F49104D4C684FF4FA7203FB02F2A5FB4F
:1027E000023292094B681B1B9A42FBD24369002BB1
:1027F000B6D01A689B881383B2E787F85409F8BDEE
:10280000E81A0020A186010000000020E02B002033
:10281000001000E0D34D62101049114BD1F8882010
:1028200042F4700210B4C1F888201A680D4C0020E0
:1028300042F001021A6098601A6822F0847222F451
:1028400080321A605C601A68074C22F480221A6099
:10285000D8608C605DF8044B704700BF00ED00E06D
:10286000003802401030002400000008704700BF0C
:102870002DE9F84346697EB9D0F80080C8F30D0908
:1028800004460F46B9F1000F26D03F68FDF746FD1C
:10289000092804D06FF001063046BDE8F8834A4DA0
:1028A0002B6923F440732B612B6943F400732B6174
:1028B0002B6943F001032B61C8F80070FDF72EFD72
:1028C0002B69092823F001032B61E3D1236804332A
:1028D00023603046BDE8F8833C4B98452AD303F586
:1028E0008043984524D303F58043984554D3384B0F
:1028F000984554D903F58033984553D903F50033EF
:10290000984552D903F50033984551D903F5003362
:1029100098453ED903F5003398454CD903F58023FB
:1029200098454BD9B8F1016F4BD305200DF076FED9
:102930004FF00809FDF7F2FC092804D04FF0FF36EC
:102940003046BDE8F883204D2B6923F440732B619A
:102950002B6943F400732B612B6923F0F8032B617F
:102960002B6943EA090343F002032B612B6943F40B
:1029700080332B61FDF7D2FC2B6923F002032B611E
:102980002B69092823F0F8032B61D7D1D4F80080F4
:102990007BE74FF03809CDE74FF01009CAE74FF059
:1029A0001809C7E74FF02009C4E74FF02809C1E72D
:1029B0004FF03009BEE74FF04009BBE74FF0480940
:1029C000B8E74FF05809B5E7003C02400040000866
:1029D000FFFF00080148FDF71DBC00BF28010020D3
:1029E0000148FDF717BC00BF740300200148FDF744
:1029F00011BC00BFC00500200148FDF70BBC00BFA3
:102A00000C080020704700BFF0B5254B026825492F
:102A100083B00646002401E051F834309A4209D0D0
:102A200001340E2CF8D100211F4A052005F0DAFFF1
:102A3000002113E01D4F07EB8407D7F8285585B117
:102A4000717901EB410305EBC30300221820C3E9B0
:102A5000032200FB01559E601A75291D084603B02C
:102A6000F0BD0A21642006F0AFF80146C7F828053A
:102A700070B1294664226EF092FD0A4BD7F82855B2
:102A800003EBC404C5E90045ED616D63ED64D7E770
:102A90000190074A052005F0A5FF0199DEE700BF78
:102AA000000001403417070898A50708E02B002014
:102AB000C0A50708704700BFB0B14B6810B4A3B100
:102AC0008B6813B343681A6881605879918902232F
:102AD00083400B439BB2938193899BB243F00103E4
:102AE00093815DF8044B7047704743681A685C79BE
:102AF00093894FF0020C0CFA04FC9BB28C6823EA19
:102B00000C039381A4B18160E6E74468226893894D
:102B100023F001031B041B0C938181606079918970
:102B20005DF8044B022383400B439BB293817047B3
:102B3000938923F001031B041B0C93818160D0E770
:102B400038B5D0E9004307EE902A1B68354A206863
:102B50000139934204688DB216D002F58062934227
:102B600012D002F5705293420ED002F58062934269
:102B70000AD002F58062934206D02B4BD3F8543A28
:102B80005B0807EE103A04E0274B03F6542393ED5D
:102B9000007ADFED266AB8EE477AF8EE677A87EEBC
:102BA000270A30EE260A6BF0D3FA1E4A2388013832
:102BB000944280B29BB212D002F5806294420ED051
:102BC000B4F1804F0BD0A2F58032944207D002F5C9
:102BD0008062944203D002F58062944202D123F0D5
:102BE00070039BB2124A944212D002F58062944262
:102BF0000ED023F4407302F56C429BB294422380C2
:102C0000E56220850AD1002323860123A38238BDF3
:102C10002380E56220850123A38238BD054B9C42B9
:102C2000F1D0F8E700000140000000200AD7233C63
:102C3000001000400004014070B54068837903F043
:102C4000020213F0040300F0C9804FF0000E134697
:102C500004247246754690F805C0BCF1030F30D8C5
:102C6000DFE80CF08E5F30020368188C20F480508F
:102C70000004000C1884188C9C8820F40050000478
:102C80002A43000C40EA0232988B6C4D20F4E64057
:102C90000004000CAB42A4B240F4C04000F0B0808D
:102CA00005F58065AB4200F0AB809C809883196489
:102CB0001A849A8B22F400621204120C42F400620D
:102CC0009A8370BD2A4305685C4E288C20F480707E
:102CD0000004000C2884288CB5F804C020F400708F
:102CE0000004000C40EA0222A88B20F073000004CC
:102CF000000CB5421FFA8CFC40F0600073D006F562
:102D00008066B5426FD0A5F804C0A883E9632A8421
:102D1000AB8B23F008031B041B0C43F00803AB83AD
:102D200070BD2A430568454E288C20F01000000431
:102D3000000C2884288CB5F804C020F02000000482
:102D4000000C40EA0212288B20F4E6400004000C3C
:102D5000B5421FFA8CFC40F4C04061D006F5806695
:102D6000B5425DD0A5F804C02883A9632A842B8BC3
:102D700023F400631B041B0C43F400632B8370BD1E
:102D800000682E4E2A43058C25F001052D042D0CDC
:102D90000584058CB0F804C025F002052D042D0C27
:102DA0002A43058B25F073052D042D0CB0421FFA24
:102DB0008CFC45F0600528D006F58066B04224D032
:102DC000A0F804C0058341630284038B23F0080349
:102DD0001B041B0C43F00803038370BD4FF4807E7B
:102DE0001C46012537E722F4006242EA032222F45E
:102DF00080622CF4405C42EA04224CEA0E1C82E71A
:102E000024F4804444EA8E144FE74FF6F3761640DC
:102E10002CF4407C46EA03024EEA0C0C2243CFE736
:102E200022F0800242EA031222F040022CF4406CAD
:102E300042EA04124CEA8E0C94E700BF0000014005
:102E400070B4EFF31182102383F31288C4684668CC
:102E5000A5682B6823F001032B603568114B767948
:102E600033F81660AB899BB223EA0603AB81236972
:102E700065681F2B11D9203B202404FA03F3EB6073
:102E8000D3B283F31188C3689B6859601A68012420
:102E900022431A60047470BC7047202404FA03F3C0
:102EA000AB60EDE7D816070803681A7D012A04BF56
:102EB00002221A7593F82C100CBF4FF400720022F6
:102EC000012904D1022183F82C1042F4806293F886
:102ED0004410012905D093F85C1001290AD072B979
:102EE0007047022183F8441093F85C10012942F4E2
:102EF000006204D1022183F85C1042F480524168E0
:102F0000096800234B628B899BB21A438A81704700
:102F1000024B0348D3F82815FDF7CEBFE02B002065
:102F20000000014010B5064C0648D4F82815FDF7FE
:102F3000C3FFD4F848150448BDE81040FDF7BCBFF6
:102F4000E02B0020000001400040014010B5064C7D
:102F50000648D4F82815FDF7AFFFD4F84C150448FF
:102F6000BDE81040FDF7A8BFE02B002000000140A5
:102F70000044014010B5064C0648D4F82815FDF76A
:102F80009BFFD4F850150448BDE81040FDF794BFEE
:102F9000E02B00200000014000480140034B4FF0AF
:102FA0008040D3F82C15FDF787BF00BFE02B002031
:102FB000024B0348D3F83015FDF77EBFE02B00200D
:102FC00000040040024B0348D3F83415FDF774BFEA
:102FD000E02B002000080040024B0348D3F83815CE
:102FE000FDF76ABFE02B0020000C0040024B0348B5
:102FF000D3F84415FDF760BFE02B0020000401402A
:1030000010B5064C0648D4F84415FDF755FFD4F822
:1030100054150448BDE81040FDF74EBFE02B0020DA
:10302000000401400018004010B5064C0648D4F8D2
:103030004415FDF741FFD4F858150448BDE8104089
:10304000FDF73ABFE02B002000040140001C0040C7
:1030500010B5064C0648D4F84415FDF72DFFD4F8FA
:103060005C150448BDE81040FDF726BFE02B0020AA
:10307000000401400020004010B508F081FE60B15E
:10308000044640F216220023C2800372012104F09C
:1030900069F82368A2885A8310BDBDE81040012159
:1030A00004F060B80348D0F8643A13B100F6582031
:1030B00018477047000000200348D0F8843A13B145
:1030C00000F6782018477047000000200348D0F829
:1030D000A43A13B100F6982018477047000000206A
:1030E0000348D0F8C43A13B100F6B8201847704727
:1030F000000000200348D0F8E43A13B100F6D820CD
:1031000018477047000000200348D0F8043B13B173
:1031100000F6F82018477047000000200348D0F858
:10312000243B13B100F61830184770470000002008
:103130000348D0F8443B13B100F6383018477047C5
:10314000000000200348D0F8643B13B100F658306B
:1031500018477047000000200348D0F8843B13B1A3
:1031600000F6783018477047000000200348D0F878
:10317000A43B13B100F698301847704700000020B8
:103180000348D0F8C43B13B100F6B8301847704775
:10319000000000200348D0F8E43B13B100F6D8301B
:1031A00018477047000000200348D0F8043C13B1D2
:1031B00000F6F83018477047000000200348D0F8A8
:1031C000243C13B100F61840184770470000002057
:1031D0000348D0F8443C13B100F638401847704714
:1031E0000000002002683649002310B422F00102DA
:1031F000212488420260036043608360C3600361EE
:10320000446138D02F4B98422ED02F4B98423CD05F
:103210002E4B984240D02E4B984232D02D4B9842A4
:1032200041D02D4B984246D02C4B984217D02C4B76
:1032300098423CD02B4B984216D02B4B984224D02E
:103240002A4B984228D02A4B98421AD0294B9842B0
:1032500029D0294B98422ED0284B984208D14FF0C4
:103260003D5243F8AC2C03E04FF4746243F8202C39
:103270005DF8044B7047224B5DF8044B3D229A6089
:103280007047204A43F8642CF2E74FF474125DF85B
:10329000044B43F8382C70474FF074625DF8044BD0
:1032A00043F8502C7047184A43F87C2CE0E73D2245
:1032B00043F8082CDCE7154A43F8942CD8E700BF04
:1032C00010600240286002404060024058600240A6
:1032D0007060024088600240A0600240B860024016
:1032E0001064024028640240406402405864024076
:1032F0007064024088640240A0640240B8640240E6
:10330000006002403D000020400F002000003D20F2
:1033100000222DE9F04713460D684FF0010E0326F9
:1033200004E00133102B02F1020239D00EFA03FC43
:103330003CEA0504F5D1076806FA02F427EA040717
:1033400007600F79D0F800A007FA02F9013F49EAB7
:103350000A09012FA046C0F800906FEA040411D8B2
:1033600087683C4084604C79876894403C43846023
:10337000446824EA0C0444608C7947689C40A4B2F9
:103380003C434460C46824EA0804C460CC79C7683C
:10339000944001333C43102BC46002F10202C5D1BA
:1033A000BDE8F0872DE9F04100212A4D2A48DFF8D9
:1033B000B48082B038226EF0F2F8284905F1140684
:1033C00005F1B407A5F170044246002301E054F86A
:1033D000332091420BD001330E2BF8D1002014364C
:1033E00063F0F2FEBE420CD056F8141CECE71C4A07
:1033F00002EBC303143693F8600063F0E5FEBE42AF
:10340000F2D1DFF86480B8352820A8F1E4074FF046
:10341000007601E018F8140C08F0B2FC08F114086A
:10342000044688B1036803F13F4303F57E0307EBCD
:10343000932393F86C0163F0C7FEA388019620687C
:1034400000936946FFF764FFA845E3D102B0BDE8E9
:10345000F08100BFA4170708083100200044014094
:10346000D816070800000140BC170708224A9368D5
:1034700003F00C03042B10B421D0082B22D01F4BD7
:1034800003601D4C1E4AA168C1F30311114491F859
:10349000581CCB404360A168C1F38221114491F8CC
:1034A000581C23FA01F18160A1685DF8044BC1F357
:1034B00042310A4492F8582CD340C3607047114BF4
:1034C0000360DEE75368516813F4800F01F03F0199
:1034D000536814BF0B4A094AB2FBF1F1064A52681D
:1034E000C2F30142C3F38813013201FB03F352001C
:1034F000B3FBF2F30360C4E7003802400024F40099
:103500000000002000127A0070B5446B8668A38921
:1035100023F400531B041B0CA381827905464079D8
:1035200012F0040F14BF4FF4805C4FF0000C110335
:1035300010F0010F4FEA02220CBF0023042302F413
:103540008062800748BF43F0080342EA0C0213433D
:10355000228A92B201F4005122F440520A4322829C
:10356000A28922F4B05222F00C021204120C1A4367
:10357000A281A38A23F440731B041B0C84B0A38292
:103580006846FFF773FF3D4B9C4205D003F580630F
:103590009C4201D0029A00E0039AA38938491B0497
:1035A00002EB82024CBF7300B30002EB8202B2FB5B
:1035B000F3F3A1FB0302A08952096426000406FB71
:1035C00012334FEA021228D41B013233A1FB03133A
:1035D000C3F3431313439BB223816A796B6BA879BE
:1035E00002F001019207274A48BF41F002019342CD
:1035F0001BD000079A8A0AD592B242F008029A823A
:103600009A8992B242F400529A8104B070BD22F0BD
:1036100008021204120C9A82F2E7DB003233A1FB9B
:103620000313C3F342131343D5E7CE0700F001029F
:1036300010D48907DDD532B9134AD2F87C1CB2F810
:10364000802C4A83D5E7104AD2F87C1CB2F8802C33
:103650000A83CEE742B10C4AD2F8704CB2F8745CDF
:1036600025838D07C5D5EFE7074AD2F8704CB2F82D
:10367000745C65838C07E0D4BBE700BF0010014099
:103680001F85EB5100140140E81A00202DE9F84392
:103690001D462E4B9DF820609DF824909842884648
:1036A00017463BD02A4B984240D02A4B984245D0EF
:1036B000294B984221D14B46324629460520FDF739
:1036C00035FB04460023C4E90B87C4E90733C4E98A
:1036D00009336671A56084F806902046FFF714FF51
:1036E000F107626B12D4B3070BD493899BB243F4F6
:1036F000005393812046BDE8F88300242046BDE8AE
:10370000F883D36843F08003D360EEE74FF6DF73AE
:103710001380D36843F02003D360E4E74B4632467E
:1037200029460020FDF702FB0446CBE74B46324614
:1037300029460220FDF7FAFA0446C3E74B46324613
:1037400029460320FDF7F2FA0446BBE700100140CA
:1037500000480040004C0040001401408160D3E666
:103760004171D1E62DE9F043DFF8148208EBC0097E
:1037700085B00546C70099F86C0C08F001FB0446BB
:1037800099F86D0C08F0FCFA064699F86E0C63F097
:103790001BFD6B1CDBB2002C00F0AD8040F60E125E
:1037A0002372E280002E00F0C380337240F60E23B5
:1037B0002046F38004223A2108F0B6FC0422304669
:1037C0003A2108F0B1FC08EB0703624AD3F8684CD1
:1037D000944200F09880604B9C4200F09E805F4BCA
:1037E0009C4200F0AB80474497F86F2C022A5CD0D3
:1037F000032A7ED05A4B5B4E012A18BF1E46A7886B
:103800006846FFF733FE27F03F07029B564AB3FB9B
:10381000F6F63F04A2FB03233F0C47EA9347A78039
:10382000228822F001021204120C2280B2B2C6F3E6
:103830000B069B0C002E59D04FF4967101FB03F33D
:103840004A49A1FB03139B0901339BB242F4004296
:103850002384A2832388464A9BB243F0010323803A
:10386000238823F4816323F002031B041B0C4FF411
:10387000804143F4806323802181238823F08003E7
:103880001B041B0C238023889BB202EB451243F0E0
:10389000010323800121002382F8605582F861151D
:1038A00082F8623505B0BDE8F083A6886846FFF768
:1038B000DDFD26F03F06029A2B4B3604A3FB0213D4
:1038C000360C46EA9346A680218821F001010904BE
:1038D000090C21809B0C2749013392092384A1FB09
:1038E00002329209042A38BF0422B2E742F00102F0
:1038F000A2E7214E83E7002E3FF465AF337240F616
:103900000E23F3805AE71D4B1A6A42F400121A6222
:103910001A6A22F400121A6265E703F5F0331A6A94
:1039200042F480021A621A6A22F480021A625AE78A
:10393000042220463A2108F0F7FB44E703F5EE3372
:103940001A6A42F400021A621A6A22F400021A6227
:1039500049E700BF0054004000580040005C0040B0
:10396000804F1200009F240083DE1B43D34D621062
:10397000E02B0020632D3E05C027090000380240DF
:10398000000000202DE9F047954D90F90010804689
:10399000807805EBC1060138CC0090B0D6F8681CE1
:1039A00014282ED8DFE810F0530126011500570027
:1039B0006100A200AA00CB01BD017D008700450285
:1039C0000D02E001C500D50030003800AA019C01BD
:1039D0005B01888A0C8B81B2824841EA044130EA5B
:1039E000010100F02681D8E90210521A42F210714A
:1039F00063EB00038A4273F1000302D3152388F8B6
:103A0000023010B0BDE8F08798F813000882C8E9CA
:103A10000223122088F80200888A0C8B80B240EAC8
:103A20000440714C34EA000000F0B68000200E9093
:103A30000F9001200F910E900E99002900F01E8228
:103A40000F9914310F910F9909684905CBD51423AB
:103A500088F80230D5E798F8110000F0FE000882DF
:103A6000C8E90223052088F80200888A0C8B80B2FE
:103A700040EA04405D4C34EA000000F0A4800020DD
:103A8000009001900120019100900099002900F020
:103A90000182019914310191019909684F05D6D429
:103AA000A1E798F8110040F001000882C8E902235C
:103AB0000B2088F80200888A0C8B80B240EA044010
:103AC0004B4C34EA00006FD0002004900590012098
:103AD000059104900499002900F0D68105991431CC
:103AE0000591059909684D05B1D47CE798F8130054
:103AF0000882C8E90223072088F80200888A0C8B14
:103B000080B240EA0440384C34EA00005FD0002024
:103B1000029003900120039102900299002900F085
:103B2000C581039914310391039909684E058ED418
:103B300059E7088820F480600004000C088098F899
:103B4000110000F0FE000882C8E90223102088F866
:103B50000200888A0C8B80B240EA0440234C34EA8D
:103B6000000012D000200C900D9001200D910C90BF
:103B70000C99002900F094810D9914310D910D9943
:103B8000096848053FF563AF2DE798F81330FF2B20
:103B900006D198F810301BB1132388F8023030E7B3
:103BA000112388F802302CE7D8F81400012800F01F
:103BB0009381022800F049820E20098B88F80200C8
:103BC000C8E902231DE7062388F8023019E7D8F870
:103BD0001400002800F07081082388F8023010E7F4
:103BE000000000200100030084000700820007009D
:103BF00002000300088820F400600004000C088024
:103C0000088880B240F480600880088880B240F460
:103C100080700880032088F80200888A0C8B81B2AB
:103C2000AB4841EA0441C8E9022330EA01037FF4CA
:103C3000E8AE98F81230002B40F0D38198F813309A
:103C4000FF2B00F04682042388F80230D9E6098869
:103C500089053FF5C8AE002388F80230D1E62C4430
:103C600094F86C0C08F08CF8064694F86D0C08F08B
:103C700087F8984AB2F8C03501339BB28246A2F861
:103C8000C03516B13368B2881A83BAF1000F04D078
:103C9000DAF80030BAF804201A831121304603F014
:103CA00061FA1121504603F05DFA4FF009096527CA
:103CB0002EB13368B28819690A4240F02881013F69
:103CC00000F022810CF04EFC04460D460CF04AFC3C
:103CD000001B61EB0501052871F10003F6D3E7E74E
:103CE000088880B240F4007008804FF6FF30888268
:103CF0000121C8E9022388F8021082E6D8F81400EE
:103D0000002800F07281D8F8184014F8016B0E8278
:103D100001381225C8E90504C8E9022388F80250D1
:103D20006FE6888A0C8B81B2694841EA044130EA27
:103D300001017FF458AE0A2388F8023061E6088852
:103D400080B240F480700880092088F80200888AD8
:103D50000C8B81B25E4841EA0441C8E9022330EA93
:103D600001037FF44EAEE6E7002401250A940B948C
:103D70000B910A950A98002800F04A810B9814309C
:103D80000B900B98006846077FF52DAED8F814000D
:103D9000032800F07281022800F24681088820F48E
:103DA00080600004000C0880088880B240F4007035
:103DB0000880098A88F81C40C8E9022388F8025064
:103DC0001FE60020012408900990099108940898A2
:103DD000002800F0178109981430099009980068AC
:103DE00047077FF500AEEFF31185102080F31288AE
:103DF000088880B240F400700880D8F818000E8A55
:103E0000471CC8F81870EDB2067085F311880D8A4A
:103E1000D8F818106FF001004E1CC8F818600D702B
:103E2000C8E90223C8F8140088F81C4088F802404A
:103E3000E7E5002006900790012007910690069C78
:103E4000002C00F0EB80079C14340794079C246836
:103E500064067FF5C8AD0C8AD8F818104D1CC8F858
:103E600018500C70D8F8141088F81C000139C8E9F3
:103E70000223C8F8141088F80200C2E50F9918311F
:103E80000F910F990968AEE50599183105910599CB
:103E90000968A8E501991831019101990968A2E51D
:103EA0000D9918310D910D9909689CE50399183108
:103EB00003910399096896E5088880B240F4007080
:103EC00008800121C8E9022388F8021099E500BFA3
:103ED00001000300E02B0020088820F4806000042B
:103EE000000C0880EFF31184102080F31288088BF7
:103EF000088880B240F40070E4B2088084F311882E
:103F00000C2188F802105BE616B13368B2885A8338
:103F10000CF028FB04460D460CF024FB031B61EB60
:103F20000501052B71F10003F6D316B13368B28891
:103F30001A830CF017FB04460D460CF013FB031B11
:103F400061EB0501052B71F10003F6D3B9F101090D
:103F50007FF4ADAE16B13368B2885A830CF002FB21
:103F600004460D460CF0FEFA031B61EB0501052B20
:103F700071F10003F6D3BAF1000F04D0DAF8003083
:103F8000BAF804205A830CF0EDFA04460D460CF002
:103F9000E9FA031B61EB0501052B71F10003F6D370
:103FA00016B13368B2881A830CF0DCFA04460D4669
:103FB0000CF0D8FA031B61EB0502052B72F100032C
:103FC000F6D3BAF1000F04D0DAF80030BAF80420C2
:103FD0001A8398F90000441C3FF43DAEFFF7C2FB82
:103FE00039E60F2388F802300BE5088880B240F4E8
:103FF000007008800121C8E9022388F81C1088F8A5
:104000000210FEE409991831099109990968EAE456
:104010000B9918310B910B990968E4E40799183151
:10402000079107990968DEE4D8F81800098A441C4A
:10403000C8F818400170D8F81410C8F808200139E1
:10404000C8F81410C8F80C30DBE4088880B240F4DB
:1040500000600880EFF31184102080F31288088B31
:10406000088820F480600004000CE4B2088084F327
:1040700011880D2188F80210A2E5088820F48060DC
:104080000004000C0880EFF31184102080F31288E4
:10409000D8F818000D8A461CC8F818600570088802
:1040A00080B240F40070E4B2088084F31188D8F83C
:1040B0001800098A441CC8F818400170D8F8141078
:1040C0000C200239C8E90223C8F8141088F802004D
:1040D00097E498F81030002B3FF4B5AD2BE600BF05
:1040E00038B5184D9DF814E005EB40144FEA401C1C
:1040F00094F8610500B938BD490084F87325C4F807
:10410000743584F871150023049984F870E502224F
:1041100005F5AC6584F87235C4F8781584F87C35FB
:1041200084F8622565440CF01DFA02460B462846C9
:10413000FFF728FC94F86235002BF4D194F87C0545
:1041400038BD00BFE02B002038B5184D9DF814E0B5
:1041500005EB40144FEA401C94F8610500B938BDE6
:1041600084F87325C4F8743501220023490005F54D
:10417000AC6584F8722584F87C35049A84F870E57F
:10418000022384F87115C4F8782584F862356544F3
:104190000CF0E8F902460B462846FFF7F3FB94F8CB
:1041A0006235002BF4D194F87C0538BDE02B00205B
:1041B000F0B587B00023824A00930193136843F45B
:1041C0008033136003E0009BB3F5A04F09D0136860
:1041D00003F400330193009B01330093019B002BF8
:1041E000F1D0774B1B6813F4003318BF0123019300
:1041F000019B012B01D000BFFDE7714B71491A6C87
:10420000714842F080521A640A6842F440420A60DF
:104210009A689A609A6842F400429A609A6842F4F6
:10422000A0529A6058601A6842F080721A601A6848
:104230009201FCD5654A40F205711160996821F040
:1042400003019960996841F00201A2F580629960CA
:10425000936803F00C03082BFAD1936803F00C0366
:10426000042B00F08C80082B00F08E80584D594BA9
:10427000C5F8543A524BD5F8541A9A68564C5748D8
:10428000C2F303122A44002692F8802CD140544AEB
:10429000C5F8541AE260534A596FA260596B524AEA
:1042A00021F080015963596F41F080715967196B92
:1042B0000A431A635A6B5A639A6B9A631A6C4B4996
:1042C0000A431A64596C4A4A0A435A6402A948F2DA
:1042D000FF7302934FF6FF770396FFF719F800F587
:1042E00080600297FFF714F800F580600297FFF7EF
:1042F0000FF800F58060FFF70BF800F58060FFF71E
:1043000007F800F58060FFF703F800F58060FEF71E
:10431000FFFF00F58060FEF7FBFF00F58060FEF711
:10432000F7FF0846FFF7A2F8D4F8FC30029A3149AB
:10433000314843F08073C4F8FC30304BC3F8B01FF1
:104340005E60196841F001011960D5F8543A4FF4E4
:104350007A71B3FBF1F3013BB3F1807F2849B2FBE3
:10436000F1F2C0F8882908D24FF0E022F021536121
:10437000072384F823109661136107B0F0BD144D34
:10438000204BC5F8543A75E753685168104D13F443
:10439000800F01F03F01536814BF1A4A0D4AB2FB67
:1043A000F1F1074A5268C2F30142C3F388130132A4
:1043B00001FB03F35200B3FBF2F3C5F8543A59E79B
:1043C000003802400070004008544007003C0240A2
:1043D000000000200024F40000ED00E00000024096
:1043E0000003FA0500000008FF916700FFC9FE10F6
:1043F0003357070055CEACC5E81A0020001000E086
:1044000040420F0000127A0082B0064B0022019257
:104410000193019B03EB80000190019B196002B0A6
:10442000704700BF5028004010B51C2007F0A8FCC2
:104430001121044602F096FE4CB12368A2885A83EB
:10444000C8200CF0BDF82368A2881A8310BDBDE80F
:104450001040C8200CF0B4B8704700BF704700BFD0
:10446000704700BF10B5124C94F8CE3523B9114BEC
:104470004FF480225A6110BD4FF0E022D2F8103D77
:1044800023F00603C2F8103DFEF7C6F994F8CE35C6
:10449000002BECD0D4F8D4359B68DB07E7D5D4F8F3
:1044A000D026136823F0030161F307031360DEE7EE
:1044B000E02B0020003C01402DE9F04FB34CD4F834
:1044C000D0355A69D2078BB002D50BB0BDE8F08F5A
:1044D0005A699B6912EA0309F7D0C9F3074319F433
:1044E000002F009340F0E180009B590743D419F05E
:1044F000020F5FFA89F603D0D4F8D03502225A6150
:10450000B9F1000FC0F2EE8119F4006FC9F307256D
:1045100040F04A81330708D59D4B9E48D3F89C3C18
:104520009847D4F8D03508225A61F70600F1C481C3
:10453000EE0600F16F81A90600F1E880009BDA0623
:1045400009D5934B9348D3F8AC3C9847D4F8D03571
:104550004FF480125A61009B9B06B6D58C4B8D4858
:10456000D3F8B03C9847D4F8D0354FF400125A61D4
:104570000BB0BDE8F08FD4F8D4259369D26913400D
:104580001FFA83FABAF1000FB1D0DFF81882CDF824
:104590000C90A8F1180500271AF0010F78D0FEB290
:1045A000D4F8D42504EB86031069D3F8DC15536BDB
:1045B0008968F340DB01DBB203430B4013F00109D0
:1045C000D9B240F0AB810A0740F1C881D8F8002089
:1045D00008239360994619F0800F59D0D5E94CC053
:1045E000D5F82431D8F800E0ACEB00018B42DEF8BE
:1045F000182028BF0B4692B20333B2EB930F47D972
:10460000D4F8D42594F8C795323604EB8603CDE967
:104610000178674698469446874237D9D5F82431C1
:10462000391A994228BF194601F1030BD5F82831F0
:104630004FEA9B0BB9F1000F10D18AB203329210EE
:10464000D8F8CC650AD04846013053F8047B37606F
:104650008242F9D1D5E94C70D5F8283108440B4491
:10466000B842C5F82831C5F83401DEF818300AD14F
:1046700095F81C11012202FA01F1DCF8342022EA3B
:104680000102CCF834209BB29B45C5D3DDE901780B
:104690005FEA5A0A07F1010708F1040805F1280545
:1046A0007FF47AAFDDF80C9021E7D4F8D4359D691A
:1046B000DB691D402D0C3FF417AF04F2C458DFF83E
:1046C000D0B004F5C3660027C24608E06D0807F1C4
:1046D000010706F1040608F128083FF405AFEB07CF
:1046E000F4D5F9B204EB8103D4F8D425D3F8183605
:1046F0009B6852691340D807DAB200F13F819307F3
:1047000040F16781336802229A60DFE7D4F8D4353C
:10471000D4F8DC159A680868C2F34102022A06BF81
:10472000032262F30A006FF30A0008605A6842F439
:1047300080725A6006A8FEF799FED4F8D025D4F806
:10474000D415D368079D6FF38D23D3608868124911
:10475000C0F34100014491F87411032900F05F8116
:104760000E490F480126294484F8C66581424FF05E
:104770004006A4F8C86500F2AC810E2161F38D23D8
:104780004FF40051D3605161D8E600BFE02B002008
:1047900000000020A4310020D8160708401E1BFF8F
:1047A0003F420F00BC31002000238DF8133094F8F5
:1047B000D6368DF81330B64BB648D3F8A43C98479C
:1047C000D4F8D435D4F8D025986894F8CE354FF481
:1047D00000615161002B3FF49DAEC2077FF59AAE98
:1047E00094F8D936012B7FF495AE9DF81330032B46
:1047F0007FF490AED4F8D036A7491A6842F001028F
:104800001A601A6842F003021A600B6943F006034B
:104810000B617FE6D4F8D465D4F8D015736800270F
:1048200023F0010373600597059B43F02003059374
:10483000059B67F38A130593059B0B610B69059331
:10484000BC46964B03E00A690592013B02D0059AEB
:104850009006F8D494F8C52552B1914B03EB820E23
:10486000FF2253F8040F8260D86B73458260F8D141
:104870000B2363F3070763F3070C4FF0FF33B361B8
:104880004FF00113F3617761C6F810C033688548B3
:104890006FF30A13336094F8C725D4F81836012A49
:1048A000186100F0B5804FF480534B61784B794824
:1048B000D3F8A03C98473EE6D4F8D0359A6922F068
:1048C00010029A611A6AC2F34340022802F00F01F3
:1048D00000F0B080062800F087809A6942F010024C
:1048E0009A6125E694F8CE353BB1D4F8D02613680A
:1048F00023F0030161F307031360D4F8D425644B5C
:104900006448D3F8A81C536823F001035360884718
:10491000D4F8D0354FF000425A61F5E5516BD8F824
:1049200000005B4B4FF0010C0CFA07FC21EA0C0174
:1049300051630122D3F8943C826031465548984730
:1049400094F8C735012B00F0B18019F0020F3FF445
:1049500042AED8F8003002229A6099E6CB0604D520
:10496000D8F8003010229A6092E6480658BF89466F
:10497000EBD5D8F8003040229A6089E694F8C72534
:10498000336801208242986007D11A69D8F87C33D5
:10499000C2F312029B1AC8F88C33DBF8903C5046E5
:1049A000984794F8C735012B7FF490AE002F7FF421
:1049B0008DAE94F8D536052B7FF488AED4F8183632
:1049C000384A1A61384A5A611A684FF080221A60D0
:1049D0007CE610077FF57AAEDBF8983C50469847A6
:1049E000336808229A6071E601EB810104EBC10192
:1049F000D4F89466D1F85009C2F30A120244306820
:104A0000C4F8900B3068C4F8940BC1F8502964E7DF
:104A1000254A5A611A684FF080221A6043E7002144
:104A200084F8C6154FF40071A4F8C815092161F384
:104A30008D23A5E647F6F07010423FF44EAFC2F367
:104A40000A1201EB810004EBC00002F1030C5FEAE3
:104A5000AC0CD0F84469D4F894E64FEA810818BF4A
:104A6000002006D00130DEF8007046F8047B844553
:104A7000F8D1414404EBC101D1F844091044C1F814
:104A80004409D1F850090244C1F8502925E700BF74
:104A900000000020A431002000ED00E0400D0300E4
:104AA000B83100201800086070370020002F7FF414
:104AB0004CAF94F8D536042B7FF447AFD4F81836B2
:104AC0002B4A1A612B4A5A611A684FF080221A60E9
:104AD0003BE72948A5F57401A1F51051814203D89F
:104AE0000D2161F38D234BE6244925482944814259
:104AF00003D20C2161F38D2342E62248A5F18C718B
:104B0000A1F54341814203D80B2161F38D2337E6A0
:104B10001D491E482944814203D20A2161F38D2395
:104B20002EE61B491B482944814203D2092161F327
:104B30008D2325E61848A5F1B771A1F5585181429A
:104B400003D2082161F38D231AE61449144829443D
:104B5000814203D2072161F38D2311E611491248E6
:104B60002944814234BF0621052161F38D2307E6E4
:104B70001800086070370020DFC810002013FBFE0B
:104B800020D61300FF69180000D3CEFE40771B002B
:104B9000C05BB3FEC091210040AC2700C01D6AFE7F
:104BA00040E13300803C36FEE09C41000378022B5C
:104BB00012D00E4943680269D1F8180210B41840A7
:104BC000D1F81042D1F80C12931E400A04FB0300E6
:104BD00008445DF8044B7047044B4268D3E98001F8
:104BE00000EB410000EB5220704700BFD857002077
:104BF0002DE9F84F12F0020E01D000283CD08A4D6A
:104C0000D5F80872002F43D14FF0FF3C874CE146A6
:104C1000E046E24600262768B84200F0D98094F8C2
:104C20000EB0BBF1000F4ED0BBF1010F16D1804F7B
:104C300006F5817B07EB0B1B9BF807B01BF0010F00
:104C40000CD11BF07E0F09D15FEADB1740F0B48076
:104C5000D4F808B0D34501D2DA46B1460136082E61
:104C600004F11004D7D1BCF1FF3F38D1B8F1FF3FB8
:104C700030D06F4CC44633E06B4D95F8B431A5F598
:104C80008054E3B10123637002263046BDE8F88FFB
:104C9000D5E9834606FB0744A042B5D395F8B43165
:104CA00013B9012385F8B431614B012200265A70F3
:104CB0003046BDE8F88F95F8B431002BE2D10123DE
:104CC00085F8B431DEE7B4460136082E04F110044D
:104CD000A1D1C8E7B9F1FF3F18BFCC4674D0544CFE
:104CE000D5F8986004EB0C1841F21809013648F821
:104CF000090041F21C090CF5817748F809604FEA78
:104D00000718C5F8986044F8086004EB07164FF0E0
:104D10000008C6F8048004EB0716B679042ECAD83A
:104D2000DFE806F0031952192F0012F0010868D1CC
:104D300004EB0710D61090F80790032B66F3C71901
:104D400080F807905BD94FF6FF70834228BF034677
:104D500004EB07108380BEF1000F12D0D5F8983015
:104D6000D5F89C0001330130C5F89830C5F89C0097
:104D700004EB0C1041F21C05435104EB0713042013
:104D80009871500705D504EB0710C37943F0010370
:104D9000C371D30608D504EB0714E379C3F34502C6
:104DA000013262F34603E371224B012603EB4C23ED
:104DB0000B603046BDE8F88FB0460136082E04F18E
:104DC00010047FF428AF4EE700263046BDE8F88F88
:104DD000174C06F5817704EB071C4FEA07189CF87F
:104DE00006C0BCF1000F01D1B44679E7B446D5F84E
:104DF0009860013644F80860C5F898608BE7434630
:104E0000A6E70D4BD3F8903D002BDDD009495D6836
:104E10000A4A01EB4C210023A8470028D4D004EB18
:104E200007140223A37130E7D8570020F057002061
:104E3000D8470020F0470020E81A0020BD070008EE
:104E400070B5104E3378022B0F4B0BBF020AC0F324
:104E5000D412C4B200F07F04D3F8000282B0104430
:104E60000D460023032201A9FFF7C2FE012807D146
:104E70003378022B019B0CBF23F8145043F82450C5
:104E800002B070BDD8470020D85700202DE9F04F60
:104E9000DFF82C8198F80060032E85B00C4615468B
:104EA00043D001288CBF00220122022E0B68019200
:104EB00069D14FEA1329DFB24FF4807A0138012813
:104EC00020D84FF0010B9D4217D93C4ED6F87821DF
:104ED0001AB1D6F89411994258D0D6F8000200239E
:104EE0004844092203A9FFF783FE01282CD0022899
:104EF00017D020B123689D42E8D82560032005B073
:104F0000BDE8F08FF7B12D4B93F8B42112B901220F
:104F100083F8B4210123022088F8013005B0BDE8F0
:104F2000F08F022005B0BDE8F08F01288CBF002370
:104F3000012301930B684FF0800AC3F3D41903F0E7
:104F40007F07BBE7D346BEE798F800200399DDF85A
:104F500004C0022A14D0032AE3D151F8273023F0E9
:104F60007043B3FA83F35B0963455F44236821D040
:104F70005B4457452360ECD309F101090027BAE7E8
:104F800031F81730EDE74FF4807AD6E7D6F81012F3
:104F9000013A02EB41224902B2FBF1F21344B3FBA6
:104FA000FBF20BFB12320AB15B449B1A9D42236059
:104FB0008CD8A2E7AB42A2D39FE700BFD85700200E
:104FC000D84700202DE9F04FDFF86CB19BF800C006
:104FD000BCF1020F894683B009688246174640F04B
:104FE0008C800BF58053CEB2D3F80052A6EB0108AB
:104FF00005EB112590444FF480739844B94208F1B1
:10500000FF38B8FBF3F84CD2A844BCF1030F07EB10
:1050100006040CBF80224FF48072641A9442A8EBFD
:10502000050328BF144666B994422CBF0A220B22FE
:1050300001A92846FFF7DCFD012809D003B0BDE82F
:10504000F08F0B2201A92846FFF7D2FD0128F5D1E8
:105050009BF800C0D9F80010BCF1020F01F1010368
:1050600023D0B44210D9019906F18042013A01EBF4
:105070008202043901EB840142F8043F914203F1BA
:105080000103F9D1D9F80010A61B3144BAF1010F80
:10509000C9F8001021D08F4205F101054FF000063C
:1050A000B3D8012003B0BDE8F08FB442ECD9019829
:1050B00006F10042013A00EB4202023800EB4400E4
:1050C00022F8023F904203F10103F9D1A61B3144BB
:1050D000BAF1010FC9F80010DDD1B942DBD1BCF142
:1050E000020F1DD004F18044019B013C4FF0FF32C0
:1050F00043F82420D9F80010CDE70BF5805301F0D8
:105100007F06D3F80032BCF1030FC1F3D415A6EB30
:1051100001081D44904414BF4FF4807380236CE752
:1051200004F10044019B013C4FF6FF72504623F806
:10513000142003B0BDE8F08FD847002030B50446F6
:10514000C06983B010B9012003B030BD0D46002303
:10515000032201A9FFF74CFD0128F5D1B4F9203055
:10516000002B0ADA144B93F8B4210AB983F8B4017E
:10517000124B01225A700220E6E7019A012D4FEAF4
:10518000431102EB431303D0022D11D1E5255554F1
:10519000A268DA612278032A04D100221A775A77AA
:1051A0009A77DA77626A5A83120C9A8203B030BD1A
:1051B000E268DA61EEE700BFD8570020D847002048
:1051C0002DE9F04190F83C30002982B0044614BF2C
:1051D00002210021042B7BD8DFE803F0030C3D48BB
:1051E0006900FFF7ABFF012870D1626B002A75D10F
:1051F00084F83C00404EDFF808814FF6F77706F55B
:10520000805516E0BA424FD861F060FD01284FF09A
:1052100000011DD1206BFFF713FE012818D1019A60
:10522000D5F814122263531E8B4228BF0B46C5F8D3
:1052300014323278236B032A01A918469AB2E1D1BD
:10524000434531D861F042FD01284FF00001E1D023
:1052500002B0BDE8F081426B04F130010020FFF79D
:10526000B1FE012832D1032384F83C302348E16A9F
:10527000D0F89431D0F81022C0F894115B1A02FBD8
:1052800003F3D0F8782102EB4322C0F87821D0F85C
:105290007C2102EB4323C0F87C31002100F5B8707B
:1052A000FFF74CFF012811D1042384F83C3094F817
:1052B0002830042B04BF002384F82830A36B8BB163
:1052C00020469847012002B0BDE8F0810228BFD1F6
:1052D00094F82830042B09D00220B9E7022384F87F
:1052E0003C30B9E7012002B0BDE8F081002384F82A
:1052F00028300220ACE700BFD8470020D857002054
:10530000F7FFFF0F38B590F834300446052B43D82B
:10531000DFE803F01E033C0F185E006B4FF0FF3117
:10532000FFF78EFD012837D1E06AB8BB032384F86C
:10533000343000212046FFF701FF01282CD104233F
:1053400084F8343094F82830082B2BD0012038BD55
:10535000204DD5F8082200F1300102320120FFF77C
:1053600095FD012823D00238C0B2012814D80523A6
:1053700084F8343094F82830082B04BF002384F8D4
:105380002830012385F8B531022038BDC06A216B71
:10539000FFF756FD0128C9D0002038BD022384F84C
:1053A0003430F4E7002384F82830012038BDE36866
:1053B000D5F81012D4E90B2003EB4123C5F81402F1
:1053C000C4E9033002B96062012384F83430A5E7F0
:1053D000004DCFE7D857002010B590F8383004467C
:1053E000032B4DD8DFE803F0022F38432B4AC06867
:1053F000117802F580530329D3F81012D3F89421C1
:105400000CBF4FF0800C4FF4807C01FB0CF100EBE3
:105410004120C4E90302D3F87801A0EB4120C3F88E
:105420007801D3F87C01A0EB4121E06AC3F87C113C
:1054300002EB0C01C3F89411C4E90C2148BB626271
:10544000012384F8383016480021FFF777FE012841
:1054500011D1022384F83830626B04F1300101204D
:10546000FFF7B0FD012806D1032384F8383000216E
:105470002046FFF763FE431EDBB2012B01D910BDAE
:10548000022094F82830062B04BF002384F828302B
:1054900010BDA2EB0C022263D2E700BFD847002068
:1054A000485900202DE9F0434368C3F308020A4439
:1054B000B2F5007F83B004460D4605D22B446360ED
:1054C000012003B0BDE8F08390F91A20501C0AD0E7
:1054D000444902F5817201EB0212D1796FF30001A8
:1054E000D171FF22A27694F91B20511C16D03D48A1
:1054F00002F5817100EB011200EB0111D279C8793C
:10550000C2F34502012A86BF02F1FF3202F03F02D8
:105510000022FF2662F34600C871E67694F800C0C8
:10552000BCF1020FCAD0DFF8C480D8F81022B5EB66
:10553000422F4FEA422915DCD8F818721F407A42F0
:10554000AA420FDCEA194A4510D220690028B7D0D8
:10555000244A1278032A40D080B24FF6F772904264
:10556000ACD9ADE7002003B0BDE8F083227E20690E
:1055700012F0080626D0D8F89421411C8A4213D391
:1055800000D100214B44A5EB0905DB1BBCF1020F48
:1055900060613D44216163600846D7D1D8F820227C
:1055A000B3EB422F8AD38BE798F8B42122B90123B9
:1055B00088F8B431636820690A4A0126567094F865
:1055C00000C0DFE701A961F081FB0128CAD1019980
:1055D000636894F800C02069D4E7034A90427FF6DC
:1055E0006DAF6DE7D8470020F7FFFF0FD8570020B9
:1055F0002DE9F04790F8384082B00546032C00F2C0
:10560000AD80DFE804F00219730BFFF77BFE012881
:1056100010D002280AD1032385F838302B6C0020E3
:1056200085F82800002B71D098470224204602B04C
:10563000BDE8F08785F838002B78022B62D0484A05
:105640006B68D2F8182203EA0208C8F34F282846EC
:10565000FFF7ACFA424F0646A8EB0008A7F58059C1
:1056600001A9022200233046FFF7C2FA08EB060424
:1056700001281FFA84FA4FF400724FF0000104462B
:10568000D4D101986BF08BFFEB694FF40071284681
:1056900013B16B68002B3DD0D7F810325A1E9245DB
:1056A00006F101060DD2FFF7FDFE0028D8D197F8CC
:1056B000B43113B9012387F8B431012389F80130DB
:1056C000CEE7C3EBC353590201F500712846FFF73B
:1056D000E9FE40B997F8B43113B9012387F8B43122
:1056E000204B01225A70022385F838302B6C00229F
:1056F00085F8282063B1284698470124204602B047
:10570000BDE8F0876B68C3F34F28A0E702248DE75C
:1057100001248BE7019B4FF020324FF02E0E4FF00B
:10572000100C1A605A6083F800E0C3F807206C6A16
:105730001A625A6283F80BC0C3F8272083F820E06E
:1057400083F821E0EA6B5C835A8724FA0CF422FA8E
:105750000CF29C8283F82BC09A869DE7002465E7B3
:10576000D8570020D84700202DE9F041B1F9043086
:105770000F2B82B00E460446174635D02046FFF761
:1057800015FA94F91B80B8F1FF3F3ED0554B41F21A
:10579000180203EB08118A58904211D1183303EB19
:1057A0004825B38801331BB205EB4315B38020466F
:1057B0003D60FFF7FBF93060012002B0BDE8F081E9
:1057C00003F5805292F8B41100296AD001225A7070
:1057D0002278022A69D02369002B50D100230120AE
:1057E0003B6002B0BDE8F0814FF40071FFF75AFE54
:1057F000002852D04FF6FF73B3802046FFF7D6F94A
:1058000094F91B80B8F1FF3FC0D12278022A54D00E
:105810002369002BDDD03349097803290EBF3249B3
:105820009BB24FF6F7718B4294BF00230123002BEC
:10583000CFD138B92D4A92F8B431002B4ED0294B34
:1058400001225A700023112201A9FFF7D1F9012882
:1058500042D1019D264BEB1A48BF03F2FF13B3F56B
:10586000805F4FEA632230D3204A92F8B43113B9F3
:10587000012382F8B4311B4B01225A7027E0194AE8
:105880001278032A0EBF184A9BB24FF6F772934262
:1058900094BF00230123002BA0D1002002B0BDE85B
:1058A000F081012182F8B41190E7104A6368D2F8C0
:1058B0002022B3EB422F91D2EFE70C4A6368D2F873
:1058C0002012B3EB412FB4D3F1E74FFA82F884F8FA
:1058D0001B80002D7FF465AF22787AE7012382F8E0
:1058E000B431ACE7D8470020F7FFFF0FD8570020AE
:1058F000F04700202DE9F04790F8303086B004469C
:10590000042B54D8DFE813F005000E005600E60023
:105910004F00C24862F0CAF84FF6FF72012322849A
:1059200084F83030DFF8F48204F11C0501AE04F194
:105930003109324629464046FFF716FF012800F09C
:10594000F080022833D1B64901F5805595F9D2216E
:10595000531C0AD002F5817201EB0212D3796FF366
:105960000003D371FF2385F8D23195F9D3315F1C41
:1059700016D003F5817301EB031201EB0313D27907
:10598000D979C2F34502012A86BF02F1FF3202F043
:105990003F02002262F34601FF22D97185F8D3212C
:1059A000042384F830300020E36A2070984706B062
:1059B000BDE8F0879B4D95F8E031002BF7D1974F6C
:1059C00004F11C0901AE4FF0090832464946384639
:1059D000FFF7CAFE012840F00F810198002800F06F
:1059E000EB800378E52B01D0002BEED18E4A821A92
:1059F00048BF02F2FF12B2F5805F4FEA622380F0E7
:105A0000678187491B01894A13449A7B042A0CD079
:105A1000D5F898200132C5F898205A6004229A736C
:105A2000D5F89C300133C5F89C3095F9D2315E1C15
:105A30000AD003F5817301EB0313FF2285F8D2210D
:105A4000DA796FF30002DA7195F9D3315A1C18D064
:105A500003F5817301EB031201EB0313D279C2F357
:105A60004502012A4FF0FF0188BF02F1FF3285F89D
:105A7000D311D9798CBF02F03F02002262F34601B4
:105A8000D971202200216BF08AFD019BD4F83120CE
:105A9000D4F8351059601A60B4F8392094F83B10E6
:105AA00099721A81019B627EDA7203A803F084FA6C
:105AB000002840F0D480019B6FF07E0147221974CA
:105AC0005A749873D87344F2817503221D83D88267
:105AD00084F83020237E980608D5E069002311223F
